:03000000020908EA
:0C090800787FE4F6D8FD7581100208002D
:0B0914004144432056616C75653D00B6
:0608A100D2A17F0A7E00D7
:1008A700E4FDFCC3ED9FEE6480F8EC64809850147F
:1008B700E4FBFA0BBB00010AEBF44A70F60DBD002E
:0408C700010C80DFC1
:0108CB00220A
:0A091F008FB0C2A01208A1C2A122ED
:0A0929008FB0D2A01208A1C2A122D3
:1008CC008B0E8A0F8910AB0EAA0FA9101208EFFF1E
:1008DC00601012092974012510F510E4350FF50F7D
:0308EC0080E42283
:10080000E4F50CF50D7F0112091F7F0E12091F7F01
:100810003812091F7F8012091F7BFF7A0979141291
:1008200008CC7FC012091FD2A7D2A5D2A67FC012C2
:10083000091FC2A6D2A620A7FDC2A5AF90C3E50D91
:100840009403E50C648094805021EF75F00A84E5F0
:10085000F02430FE7408250DF8A606EF75F00A8422
:10086000FF050DE50D70D6050C80D2750C00750DD9
:10087000027F0612091F7408250DF8E6FF120929E8
:10088000E50D150D7002150CC3E50C6480948050C5
:10089000E0E4F50CF50D7FE87E031208A7D2A580F1
:0108A0008CCB
:1008EF00BB010689828A83E0225002E722BBFE0207
:0908FF00E32289828A83E493223A
:00000001FF
